{
  "_format": "hh-sol-artifact-1",
  "contractName": "ActivePool",
  "sourceName": "contracts/ActivePool.sol",
  "abi": [
    {
      "anonymous": false,
      "inputs": [
        {
          "indexed": false,
          "internalType": "address",
          "name": "_newActivePoolAddress",
          "type": "address"
        }
      ],
      "name": "ActivePoolAddressChanged",
      "type": "event"
    },
    {
      "anonymous": false,
      "inputs": [
        {
          "indexed": false,
          "internalType": "uint256",
          "name": "_NECTDebt",
          "type": "uint256"
        }
      ],
      "name": "ActivePoolNECTDebtUpdated",
      "type": "event"
    },
    {
      "anonymous": false,
      "inputs": [
        {
          "indexed": false,
          "internalType": "uint256",
          "name": "_iBGT",
          "type": "uint256"
        }
      ],
      "name": "ActivePooliBGTBalanceUpdated",
      "type": "event"
    },
    {
      "anonymous": false,
      "inputs": [
        {
          "indexed": false,
          "internalType": "address",
          "name": "_newBorrowerOperationsAddress",
          "type": "address"
        }
      ],
      "name": "BorrowerOperationsAddressChanged",
      "type": "event"
    },
    {
      "anonymous": false,
      "inputs": [
        {
          "indexed": false,
          "internalType": "address",
          "name": "_newDefaultPoolAddress",
          "type": "address"
        }
      ],
      "name": "DefaultPoolAddressChanged",
      "type": "event"
    },
    {
      "anonymous": false,
      "inputs": [
        {
          "indexed": false,
          "internalType": "uint256",
          "name": "_newBalance",
          "type": "uint256"
        }
      ],
      "name": "NECTBalanceUpdated",
      "type": "event"
    },
    {
      "anonymous": false,
      "inputs": [
        {
          "indexed": true,
          "internalType": "address",
          "name": "previousOwner",
          "type": "address"
        },
        {
          "indexed": true,
          "internalType": "address",
          "name": "newOwner",
          "type": "address"
        }
      ],
      "name": "OwnershipTransferred",
      "type": "event"
    },
    {
      "anonymous": false,
      "inputs": [
        {
          "indexed": false,
          "internalType": "address",
          "name": "_newStabilityPoolAddress",
          "type": "address"
        }
      ],
      "name": "StabilityPoolAddressChanged",
      "type": "event"
    },
    {
      "anonymous": false,
      "inputs": [
        {
          "indexed": false,
          "internalType": "address",
          "name": "_newTroveManagerAddress",
          "type": "address"
        }
      ],
      "name": "TroveManagerAddressChanged",
      "type": "event"
    },
    {
      "anonymous": false,
      "inputs": [
        {
          "indexed": false,
          "internalType": "uint256",
          "name": "_newBalance",
          "type": "uint256"
        }
      ],
      "name": "iBGTBalanceUpdated",
      "type": "event"
    },
    {
      "anonymous": false,
      "inputs": [
        {
          "indexed": false,
          "internalType": "address",
          "name": "_to",
          "type": "address"
        },
        {
          "indexed": false,
          "internalType": "uint256",
          "name": "_amount",
          "type": "uint256"
        }
      ],
      "name": "iBGTSent",
      "type": "event"
    },
    {
      "inputs": [],
      "name": "NAME",
      "outputs": [
        {
          "internalType": "string",
          "name": "",
          "type": "string"
        }
      ],
      "stateMutability": "view",
      "type": "function"
    },
    {
      "inputs": [],
      "name": "borrowerOperationsAddress",
      "outputs": [
        {
          "internalType": "address",
          "name": "",
          "type": "address"
        }
      ],
      "stateMutability": "view",
      "type": "function"
    },
    {
      "inputs": [
        {
          "internalType": "uint256",
          "name": "_amount",
          "type": "uint256"
        }
      ],
      "name": "decreaseNECTDebt",
      "outputs": [],
      "stateMutability": "nonpayable",
      "type": "function"
    },
    {
      "inputs": [],
      "name": "defaultPoolAddress",
      "outputs": [
        {
          "internalType": "address",
          "name": "",
          "type": "address"
        }
      ],
      "stateMutability": "view",
      "type": "function"
    },
    {
      "inputs": [],
      "name": "getNECTDebt",
      "outputs": [
        {
          "internalType": "uint256",
          "name": "",
          "type": "uint256"
        }
      ],
      "stateMutability": "view",
      "type": "function"
    },
    {
      "inputs": [],
      "name": "getiBGT",
      "outputs": [
        {
          "internalType": "uint256",
          "name": "",
          "type": "uint256"
        }
      ],
      "stateMutability": "view",
      "type": "function"
    },
    {
      "inputs": [],
      "name": "iBGTTokenAddress",
      "outputs": [
        {
          "internalType": "address",
          "name": "",
          "type": "address"
        }
      ],
      "stateMutability": "view",
      "type": "function"
    },
    {
      "inputs": [
        {
          "internalType": "uint256",
          "name": "_amount",
          "type": "uint256"
        }
      ],
      "name": "increaseNECTDebt",
      "outputs": [],
      "stateMutability": "nonpayable",
      "type": "function"
    },
    {
      "inputs": [],
      "name": "isOwner",
      "outputs": [
        {
          "internalType": "bool",
          "name": "",
          "type": "bool"
        }
      ],
      "stateMutability": "view",
      "type": "function"
    },
    {
      "inputs": [],
      "name": "owner",
      "outputs": [
        {
          "internalType": "address",
          "name": "",
          "type": "address"
        }
      ],
      "stateMutability": "view",
      "type": "function"
    },
    {
      "inputs": [
        {
          "internalType": "uint256",
          "name": "_amount",
          "type": "uint256"
        }
      ],
      "name": "receiveiBGT",
      "outputs": [],
      "stateMutability": "nonpayable",
      "type": "function"
    },
    {
      "inputs": [
        {
          "internalType": "address",
          "name": "_account",
          "type": "address"
        },
        {
          "internalType": "uint256",
          "name": "_amount",
          "type": "uint256"
        }
      ],
      "name": "sendiBGT",
      "outputs": [],
      "stateMutability": "nonpayable",
      "type": "function"
    },
    {
      "inputs": [
        {
          "internalType": "address",
          "name": "_borrowerOperationsAddress",
          "type": "address"
        },
        {
          "internalType": "address",
          "name": "_troveManagerAddress",
          "type": "address"
        },
        {
          "internalType": "address",
          "name": "_stabilityPoolAddress",
          "type": "address"
        },
        {
          "internalType": "address",
          "name": "_defaultPoolAddress",
          "type": "address"
        },
        {
          "internalType": "address",
          "name": "_ibgtTokenAddress",
          "type": "address"
        }
      ],
      "name": "setAddresses",
      "outputs": [],
      "stateMutability": "nonpayable",
      "type": "function"
    },
    {
      "inputs": [],
      "name": "stabilityPoolAddress",
      "outputs": [
        {
          "internalType": "address",
          "name": "",
          "type": "address"
        }
      ],
      "stateMutability": "view",
      "type": "function"
    },
    {
      "inputs": [],
      "name": "troveManagerAddress",
      "outputs": [
        {
          "internalType": "address",
          "name": "",
          "type": "address"
        }
      ],
      "stateMutability": "view",
      "type": "function"
    },
    {
      "stateMutability": "payable",
      "type": "receive"
    }
  ],
  "bytecode": "0x608060405234801561001057600080fd5b50600080546001600160a01b0319163390811782556040519091907f8be0079c531659141344cd1fd0a4f28419497f9722a3daafe3b4186f6b6457e0908290a3610d298061005f6000396000f3fe6080604052600436106100cc5760003560e01c80638da5cb5b1161007a5780638da5cb5b146102545780638f32d59b14610269578063a3f4df7e14610292578063aac1846f1461031c578063b7f8cf9b14610331578063da76294914610346578063eeac746114610370578063fd3535991461038557610113565b80630b622ab2146101185780632c4d5901146101495780635a4d28bb146101705780635dd68acd1461018557806363635304146101dc5780636e9d578f14610206578063782f97601461021b57610113565b36610113576100d96103af565b6006546100ec903463ffffffff61040f16565b60068190556040805191825251600080516020610c508339815191529181900360200190a1005b600080fd5b34801561012457600080fd5b5061012d610470565b604080516001600160a01b039092168252519081900360200190f35b34801561015557600080fd5b5061015e61047f565b60408051918252519081900360200190f35b34801561017c57600080fd5b5061012d610485565b34801561019157600080fd5b506101da600480360360a08110156101a857600080fd5b506001600160a01b03813581169160208101358216916040820135811691606081013582169160809091013516610494565b005b3480156101e857600080fd5b506101da600480360360208110156101ff57600080fd5b5035610664565b34801561021257600080fd5b5061015e6106b9565b34801561022757600080fd5b506101da6004803603604081101561023e57600080fd5b506001600160a01b0381351690602001356106bf565b34801561026057600080fd5b5061012d610890565b34801561027557600080fd5b5061027e61089f565b604080519115158252519081900360200190f35b34801561029e57600080fd5b506102a76108b0565b6040805160208082528351818301528351919283929083019185019080838360005b838110156102e15781810151838201526020016102c9565b50505050905090810190601f16801561030e5780820380516001836020036101000a031916815260200191505b509250505060405180910390f35b34801561032857600080fd5b5061012d6108d6565b34801561033d57600080fd5b5061012d6108e5565b34801561035257600080fd5b506101da6004803603602081101561036957600080fd5b50356108f4565b34801561037c57600080fd5b5061012d610937565b34801561039157600080fd5b506101da600480360360208110156103a857600080fd5b5035610946565b6001546001600160a01b03163314806103d257506004546001600160a01b031633145b61040d5760405162461bcd60e51b8152600401808060200182810382526031815260200180610cc36031913960400191505060405180910390fd5b565b600082820183811015610469576040805162461bcd60e51b815260206004820152601b60248201527f536166654d6174683a206164646974696f6e206f766572666c6f770000000000604482015290519081900360640190fd5b9392505050565b6003546001600160a01b031681565b60075490565b6002546001600160a01b031681565b61049c61089f565b6104ed576040805162461bcd60e51b815260206004820181905260248201527f4f776e61626c653a2063616c6c6572206973206e6f7420746865206f776e6572604482015290519081900360640190fd5b6104f685610961565b6104ff84610961565b61050883610961565b61051182610961565b61051a81610961565b600180546001600160a01b038088166001600160a01b03199283168117909355600280548883169084161790556003805487831690841617905560048054868316908416179055600580549185169190921617905560408051918252517f3ca631ffcd2a9b5d9ae18543fc82f58eb4ca33af9e6ab01b7a8e95331e6ed9859181900360200190a1604080516001600160a01b038616815290517f143219c9e69b09e07e095fcc889b43d8f46ca892bba65f08dc3a0050869a56789181900360200190a1604080516001600160a01b038516815290517f82966d27eea39b038ee0fa30cd16532bb24f6e65d31cb58fb227aa5766cdcc7f9181900360200190a1604080516001600160a01b038416815290517f5ee0cae2f063ed938bb55046f6a932fb6ae792bf43624806bb90abe68a50be9b9181900360200190a161065d610a14565b5050505050565b61066c610a5e565b60075461067f908263ffffffff610ad116565b600781905560408051918252517f35b3aa18d1e2e36dfcb30ab6db0e243dffebba1322e6bc7331be6430689bbf719181900360200190a150565b60065490565b6106c7610a5e565b6006546106da908263ffffffff610ad116565b60068190556040805191825251600080516020610c508339815191529181900360200190a1604080516001600160a01b03841681526020810183905281517f1c504e3d37601f888608153186fb51de9d16a58f6fc6967cff4d4d80741e56c0929181900390910190a16005546040805163a9059cbb60e01b81526001600160a01b0385811660048301526024820185905291519190921691600091839163a9059cbb91604480830192602092919082900301818787803b15801561079d57600080fd5b505af11580156107b1573d6000803e3d6000fd5b505050506040513d60208110156107c757600080fd5b505190508061081d576040805162461bcd60e51b815260206004820152601f60248201527f416374697665506f6f6c3a2073656e64696e672069424754206661696c656400604482015290519081900360640190fd5b61082684610b13565b1561088a57836001600160a01b031663da762949846040518263ffffffff1660e01b815260040180828152602001915050600060405180830381600087803b15801561087157600080fd5b505af1158015610885573d6000803e3d6000fd5b505050505b50505050565b6000546001600160a01b031690565b6000546001600160a01b0316331490565b6040518060400160405280600a8152602001691058dd1a5d99541bdbdb60b21b81525081565b6004546001600160a01b031681565b6001546001600160a01b031681565b6108fc6103af565b60065461090f908263ffffffff61040f16565b60068190556040805191825251600080516020610c508339815191529181900360200190a150565b6005546001600160a01b031690565b61094e610b19565b60075461067f908263ffffffff61040f16565b6001600160a01b0381166109bc576040805162461bcd60e51b815260206004820152601e60248201527f4163636f756e742063616e6e6f74206265207a65726f20616464726573730000604482015290519081900360640190fd5b803b80610a10576040805162461bcd60e51b815260206004820181905260248201527f4163636f756e7420636f64652073697a652063616e6e6f74206265207a65726f604482015290519081900360640190fd5b5050565b600080546040516001600160a01b03909116907f8be0079c531659141344cd1fd0a4f28419497f9722a3daafe3b4186f6b6457e0908390a3600080546001600160a01b0319169055565b6001546001600160a01b0316331480610a8157506002546001600160a01b031633145b80610a9657506003546001600160a01b031633145b61040d5760405162461bcd60e51b8152600401808060200182810382526053815260200180610c706053913960600191505060405180910390fd5b600061046983836040518060400160405280601e81526020017f536166654d6174683a207375627472616374696f6e206f766572666c6f770000815250610b77565b3b151590565b6001546001600160a01b0316331480610b3c57506002546001600160a01b031633145b61040d5760405162461bcd60e51b8152600401808060200182810382526041815260200180610c0f6041913960600191505060405180910390fd5b60008184841115610c065760405162461bcd60e51b81526004018080602001828103825283818151815260200191508051906020019080838360005b83811015610bcb578181015183820152602001610bb3565b50505050905090810190601f168015610bf85780820380516001836020036101000a031916815260200191505b509250505060405180910390fd5b50505090039056fe416374697665506f6f6c3a2043616c6c6572206973206e65697468657220426f72726f7765724f7065726174696f6e73206e6f722054726f76654d616e6167657236d61e2226c635631d2dc6d7e908cf8c7c64ec505d5ea3a2b4677b0871ac310e416374697665506f6f6c3a2043616c6c6572206973206e65697468657220426f72726f7765724f7065726174696f6e73206e6f722054726f76654d616e61676572206e6f722053746162696c697479506f6f6c416374697665506f6f6c3a2043616c6c6572206973206e65697468657220424f206e6f722044656661756c7420506f6f6ca2646970667358221220eb0988321336d2fa8ddb4023e41c92b993d383a66297d3ddf5b056fec798cf9f64736f6c634300060b0033",
  "linkReferences": {},
  "deployedLinkReferences": {}
}